:040000003DEF00F0E0
:100018001A80D8CF01F0E8CF02F0E0CF03F0F2A4C5
:1000280018EF00F01AEF00F035EF00F019BE28EFD6
:1000380000F0195007E1640E185CD8B026EF00F004
:1000480028EF00F02CEF00F0184A192A30EF00F0E2
:10005800000E196E000E186EE10ED76E7C0ED66E6D
:10006800F29403C0E0FF02C0E8FF01C0D8FF1A9075
:100078001000FFEF01F07E0ED36EA00EF26E870E19
:10008800D56E0F0EC16EAAEC01F0560E056E010E6C
:10009800F0EC01F0610E056E010EF0EC01F06C0E53
:1000A800056E010EF0EC01F0650E056E010EF0EC28
:1000B80001F0750E056E010EF0EC01F0200E056ED4
:1000C800010EF0EC01F0500E056E010EF0EC01F09F
:1000D800720E056E010EF0EC01F06F0E056E010E4A
:1000E800F0EC01F0660E056E010EF0EC01F01F0E4B
:1000F800136E710E126E1E0EE82EFED7122EFCD74E
:10010800132EFAD700D0000E196E000E186EE10EED
:10011800D76E7C0ED66EF294AAEC01F018C004F0EB
:1001280019C005F0000E076E0A0E066E52EC01F0BB
:1001380004C016F005C017F018C004F019C005F087
:10014800000E076E640E066E52EC01F004C014F047
:1001580005C015F014C00AF015C00BF0000E0D6EA6
:100168000A0E0C6EF0EC00F00AC012F00BC013F08F
:10017800000E076E0A0E066E14C004F015C005F0D6
:1001880052EC01F004C00AF005C00BF0000E0D6E31
:100198000A0E0C6EF0EC00F00A50125C146E0B5054
:1001A8001358156E830E056E000EF0EC01F0145016
:1001B800300F056E010EF0EC01F01650300F056E91
:1001C800010EF0EC01F0C30E056E000EF0EC01F02C
:1001D80092EF00F03DEF00F0000E0F6E0DBEF9EF4C
:1001E80000F0F7EF00F0FFEF00F00C6C0D1ED8B038
:1001F8000D2A010E0F6E0BBE06EF01F004EF01F0A1
:100208000CEF01F00A6C0B1ED8B00B2A010E0F1A66
:10021800000E116E000E106E0C500D10D8B417EFB2
:1002280001F019EF01F041EF01F0010E0E6E21EF20
:1002380001F0D8900C360D360E2A0DAE26EF01F0DF
:1002480028EF01F01DEF01F0D890103611360C5050
:100258000A5C0D500B58D8A034EF01F036EF01F0CE
:100268003BEF01F00C500A5E0D500B5A1080D890ED
:100278000D320C320E2E28EF01F00F50D8B447EF94
:1002880001F049EF01F04DEF01F0106C111ED8B0EC
:10029800112A10C00AF011C00BF01200000E096EEE
:1002A80005BE5BEF01F059EF01F061EF01F0046C5E
:1002B800051ED8B0052A010E096E07BE68EF01F0C9
:1002C80066EF01F06CEF01F0066C071ED8B0072A44
:1002D80006500710D8B473EF01F075EF01F099EFED
:1002E80001F0010E086E7DEF01F0D8900636073652
:1002F800082A07AE82EF01F084EF01F079EF01F0F0
:100308000650045C07500558D8A08DEF01F08FEF18
:1003180001F093EF01F00650045E0750055AD8909B
:1003280007320632082E84EF01F00950D8B49FEF47
:1003380001F0A1EF01F0A5EF01F0046C051ED8B0A3
:10034800052A04C004F005C005F01200000E956EE1
:10035800000E8C6E969096928D908D92270E056E5B
:10036800F50EE82EFED7052EFCD700F0000E066E1F
:10037800300E0AEC02F00D0E056EFC0EE82EFED7CC
:10038800052EFCD7062A020E0664CDEF01F0CFEF4A
:1003980001F0BCEF01F0380E0AEC02F0210EE82E55
:1003A800FED700F0010E0AEC02F00B0E056E620E8D
:1003B800E82EFED7052EFCD700D00C0E0AEC02F072
:1003C800210EE82EFED700F0060E0AEC02F01A0EF7
:1003D800E82EFED700D01200066E06B002D08D902F
:1003E80001D08D80420EE82EFED700D08D920550A8
:1003F8000AEC02F01200196A186A176A166A156A76
:10040800146A1A901A9200013FEF00F0046E04C0BB
:080418008CFF8D828D92120011
:020000040020DA
:08000000FFFFFFFFFFFFFFFF00
:020000040030CA
:0E000000FF09181EFF8181FF0FC00FE00F40A7
:00000001FF
